:020000040800F2
:10000000482E0020F5250008FD250008FF250008E2
:10001000012600080326000805260008000000004D
:10002000000000000000000000000000072600089B
:1000300009260008000000000B260008A50500089E
:100040000F2600080F2600080F2600080F260008BC
:100050000F2600080F2600080F2600080F260008AC
:100060000F2600080F2600080F2600080F2600089C
:100070000F2600080F2600080F2600080F2600088C
:100080000F2600080F2600080F2600080F2600087C
:100090000F2600080F2600080F2600080F2600086C
:1000A0000F2600080F2600080F2600080F2600085C
:1000B0000F2600080F2600080F2600080F2600084C
:1000C0000F2600080F2600080F2600080F2600083C
:1000D0000F26000853190008FB170008AF1A000884
:1000E0000F2600080F2600080F2600080F2600081C
:1000F0000F2600080F2600080F2600080F2600080C
:100100000F2600080F2600080F2600080F260008FB
:100110000F2600080F2600080F2600080F260008EB
:100120000F2600080F2600080F2600080F260008DB
:1001300000F002F800F048F80AA090E8000C8244B1
:100140008344AAF10107DA4501D100F03DF8AFF28E
:10015000090EBAE80F0013F0010F18BFFB1A43F0A5
:1001600001031847A03E0000C03E0000103A24BF23
:1001700078C878C1FAD8520724BF30C830C144BF0C
:1001800004680C607047000000230024002500264E
:10019000103A28BF78C1FBD8520728BF30C148BFEA
:1001A0000B607047642903F07D83002070471FB502
:1001B00003F08CFD04000020002103F00DFE401C24
:1001C00060601FBD10B510BD03F092FD1146FFF732
:1001D000EEFF00F09EF903F0B0FD03B4FFF7F2FF6D
:1001E00003BC03F0F1FD000008B50121042002F07A
:1001F000AFFF0220ADF8000001208DF802001020B2
:100200008DF803006946C94802F0E6FC0221C748A0
:1002100002F08FFD08BDF0B59DB00125012400243A
:1002200013E00120C24901EB44118860801EC049DF
:1002300001EB4411C860BE4901EB44114861012043
:10024000BB4901EB4411C861641C182CE9DB62B6A0
:10025000B84800684FF47A72B0FBF2F1B1F1807FD8
:1002600000D31FE021F07F40401E4FF0E02250619C
:1002700050170F22002809DA13074FEA136CAE4B10
:1002800000F00F073F1F03F807C003E013071F0E1E
:10029000AA4B1F5400BF00204FF0E02290610720BE
:1002A000106100BF01F0DEF94FF4165001F0E8FADA
:1002B0004FF4964001F004FA4FF4165001F08CFB15
:1002C000FFF792FF00F0BCF90B219DA001F028FB85
:1002D000002602F089F802F079F880219B4803F0AB
:1002E000F4FBABE0012D13D101F0DEF9A2B2984886
:1002F000D0F81012974801F0E1FF022502A800F0A3
:100300005FF902AF9449029808600398486095E04D
:10031000022D2FD19048006802908F484068014616
:100320000390029800F053F93228DAD901F0B7F9B6
:10033000074608228749384603F028FB20B90221E6
:10034000824840F8241026B203258148D0F8900155
:1003500078B982480068401C804908600124012562
:1003600008460068032804D10D217DA001F0D8FAC9
:10037000022463E0032D14D101F096F9A2B275486E
:100380002038D0F88810283001F098FF042502A802
:1003900000F016F902AF70490298086003984860AF
:1003A0004CE0042D16D16C48006802906A48406801
:1003B00001460390029800F00AF932283ED901F074
:1003C0006EF90746082263490831384603F0DEFA21
:1003D000052533E0052D14D101F066F9A2B25D4880
:1003E0002038D0F88810303001F068FF062502A8C8
:1003F00000F0E6F802AF5849029808600398486098
:100400001CE0062D1AD154480068029052484068FA
:1004100001460390029800F0DAF832280ED901F074
:100420003EF9074608224B491031384603F0AEFA30
:100430000125641C202C00DD002500BF002D7FF469
:1004400051AF02A800F0BCF802AF4349029808601F
:100450000398486000BF4048006802903E484068EA
:1004600001460390029800F0B2F83228F3D300213D
:100470003848183801F0FEFE3D488660642104A823
:1004800003F023FB3248D0F8100232492039D1F86A
:100490008410304A203AD2F88020CDE90021029021
:1004A0002C482038D0F88830314832A1826804A81E
:1004B00003F0B0F904A803F095FA0746394604A8FA
:1004C00001F02EFA2A49886800EBD0714910A0EBA0
:1004D000410141B92648806825494860084680683E
:1004E000401E086007E022488068401E204948609E
:1004F00008468068086001F0B8F901F0D5F801F00D
:1005000060FA01201249C1F80C0201F0F5FA1DB0A1
:10051000F0BDFFF780FE07E001F07BFE00F0B0FBCE
:100520001421012000F01FF9F6E700000008014047
:10053000D41600206C00002018ED00E000E400E07C
:10054000696E6974696E672E2E2E0D00601B002087
:10055000D4190020B40000200C000020000000206E
:10056000646576696365735F6E756C6C0D00000081
:10057000200100206465763A25642C616474696DFD
:10058000653D25642C64656C61793D25642C64654A
:100590006C74696D653D25642C73706565643D25DB
:1005A000640D000022484068401C2149486008460C
:1005B0004068401C18B908460068401C0860704735
:1005C0001B49096801601A4949684160704703B5D1
:1005D000174800680099401A06D00198C0F1FF3012
:1005E0001349496808440CBD114840680199401AF4
:1005F000F9E70A210FA001F093F945F2555003F0F5
:10060000E9F8032003F0E9F84FF47A7003F0E8F812
:1006100003F0E9F803F0ECF8012002F01FFD00BF41
:10062000612002F06AFC0028FAD000BFFEE700005B
:100630000400002072657365742E2E2E0D0A0000D2
:1006400000B59DB0FAA000681C90FAA003C8CDE9DF
:100650001A01FAA103C9CDE91801FAA003C8CDE92E
:100660001601FAA103C9CDE91401FAA0006813909C
:10067000F9A000681290F9A103C9CDE91001F9A110
:1006800003C9CDE90E01F9A103C9CDE90C01F9A116
:1006900003C9CDE90A01F9A103C9CDE90801F9A10E
:1006A00003C9CDE90601F9A103C9CDE90401F9A106
:1006B00003C9CDE90201F9A103C9CDE90001F94857
:1006C0001C9901601A998160BDF86C10818116999E
:1006D0000161BDF85C10818218998161BDF86410D8
:1006E000818314990162BDF8541081841399816249
:1006F0001299016310998163BDF8441081870E99A6
:100700000164BDF83C10A0F844100C998164BDF858
:100710003410A0F84C100A990165BDF82C10A0F80F
:10072000541008998165BDF82410A0F85C10069952
:100730000166BDF81C10A0F8641004998166BDF82C
:100740001410A0F86C1002998167BDF80C10A0F885
:100750007C1000990167BDF80410A0F8741001F036
:1007600024FE1DB000BD7CB506460C46CE48006890
:10077000012827D10020CD49086016E0CC48CB499C
:10078000096800EB4110806850B96846FFF718FF10
:10079000C848DDE9001206C00320C349086008E02C
:1007A000C2480068401CC1490860C0480068182859
:1007B000E4DB00BFBD480068182802D10220BA4916
:1007C00008605CE2B848006802287CD100F067FF4E
:1007D000B949086000F068FFB8480168B14848307E
:1007E00001F048FD6846FFF7EBFEB248DDE9001274
:1007F00006C000BFAF4803C8FFF7E9FEA042F9D327
:100800000222A8494831AC48006803F0BFF800282C
:100810007ED1AB48A949096850F82100002878D159
:100820001821A84803F051F9A4480268A6A1A548D8
:1008300002F0F0FFA34803F0D5F805462946A14889
:1008400001F06EF802219E489C4A126840F822107E
:100850009A480068A2490968884203DD9748006801
:100860009F4908606846FFF7ABFE9248DDE9001239
:1008700006C000BF8F4803C8FFF7A9FE3228F9D38E
:1008800004218848283001F006FD6846FFF798FEED
:100890008848DDE9001206C000BF864803C8FFF79C
:1008A00096FE3228F9D304217E48303001F0F3FC63
:1008B0006846FFF785FE7F48DDE9001206C000BFED
:1008C0007C4803C800E09BE1FFF781FE3228F7D3A4
:1008D0007A48006882B28348D0F8101271482030FC
:1008E00001F0ECFC6846FFF76BFE7248DDE9001290
:1008F00006C000BF6F4803C8FFF769FE3228F9D36E
:100900006E4801686748083001F0B4FC684601E0B1
:100910007FE00CE0FFF754FE6648DDE9001206C0F8
:1009200000BF644803C8FFF752FE3228F9D31821EC
:10093000644803F0CAF86048006800790E2848D07F
:1009400006DC072809D00A2825D00D285FD131E020
:100950000F2811D012285AD14AE05848026862A1E3
:10096000584802F057FF574803F03CF8054629461F
:10097000544800F0D5FF4BE0504802685EA1514852
:1009800002F048FF4F4803F02DF8054629464D4830
:1009900000F0C6FF3CE0494802685BA1494802F00C
:1009A00039FF484803F01EF805462946454800F03F
:1009B000B7FF2DE04148026858A1424802F02AFFE3
:1009C000404803F00FF8054629463E4800F0A8FFCE
:1009D0001EE03A48026855A13A4802F01BFF394828
:1009E00003F000F805462946364800F099FF0FE06D
:1009F0003248026851A1334802F00CFF314802F03E
:100A0000F1FF054629462F4800F08AFF00E000BFAD
:100A1000AEE02B482949096850F82100022806D188
:100A20001821284803F051F8244802688EE09FE01E
:100A30000006200800062000000500000006200037
:100A40000001000000062000000200000006200156
:100A500005DC00000006200300062004010320033B
:100A60000001000001032004000100000003210236
:100A7000000100000006200000070000010330050F
:100A80000001B90B01033007000100000006200936
:100A9000000300000106200E00010000010608030B
:100AA00000050000940000202C00002028000020F9
:100AB000D4160020300000203C000020240000203C
:100AC000601B00202C010020636F6E6E656374252F
:100AD00064706F7274737563636573730D000000E7
:100AE00038000020D41900206F766572206375727B
:100AF00072656E7425640D004F76657220766F6C9A
:100B00007461676525640D00766F6C74616765209C
:100B1000746F6F206C6F7725640D0000486F6C7ADE
:100B20006572206661756C7425640D006C6F636B73
:100B3000656420726F746F7225640D0072733438AF
:100B400035206661756C7425640D0000F5A1FA48C6
:100B500002F060FEF84802F045FF05462946F648D7
:100B600000F0DEFE0021F548F54A126840F8221038
:100B7000F3480068401CF2490860084600682028D5
:100B80007DDB6846FFF71CFDEE48DDE9001206C07C
:100B90000320ED490860ED488068ED490968884206
:100BA0006DDAEB480068E9498860886800EBD0712D
:100BB0004910A0EB410141B9E4488068401EE34977
:100BC000086008468068486007E0E0488068DF49C0
:100BD000086008468068401E48601821D64802F028
:100BE00074FFDA48DBA18268D34802F013FED248D2
:100BF00002F0F8FE05462946CF4800F091FE3EE09F
:100C0000D148006803283AD1CE4803C8FFF7DFFC7B
:100C1000B0F5FA7F33D90120C949086010E0C74810
:100C2000C749096850F82100022804D00521CBA04B
:100C300000F076FE0AE0C2480068401CC049086027
:100C4000C2488068BE4909688842E8DA00BFBF48E8
:100C50008068BB49096888420CDABC488068022871
:100C600004DA0421BFA000F05BFE03E00521BFA071
:100C700000F056FE0120B2490860B34908607CBD0F
:100C80002DE9F04FA9B000F0E7FD8046B8F1000F64
:100C90007ED000F004FD064600F0DCFD0446032291
:100CA000B4A1204602F072FE60BBB348D0F80C023B
:100CB000012826D10A220021E01C02F02FFE054661
:100CC000002D1EDD002018E0AC4901EB40118968C1
:100CD000012911D10021A84AC2F80C12A74A02EB3F
:100CE00040129160A54901EB40114D610221A34AD8
:100CF00002EB4012D16002E0401C1828E4DB00BF88
:100D000000BF0FE207229EA1204602F03FFE40B93D
:100D10009D4802F067FE054629469B4800F000FE0C
:100D2000EFE7062299A1204602F030FE40B90A22E0
:100D30000021A01D02F0F2FD9649C1F88000E0E715
:100D4000082295A1204602F021FE48B90A2200217E
:100D500004F1080002F0E2FD8E49C1F88400D0E7FA
:100D6000062290A1204602F011FE00BB502115A8DA
:100D700002F0ABFE8748D0F888008649D1F884108D
:100D8000CDE900107C48D0F81032824887A100E0FD
:100D9000F9E3D0F8802015A802F03CFD15A802F078
:100DA00021FE0546294615A800F0BAFDA9E706224E
:100DB00089A1204602F0EAFD98B90A2228A9A01DBF
:100DC00002F0ACFD054673490D700A2200212898F7
:100DD000401C02F0A3FD074639466E4801F05BFA5D
:100DE0008FE707227EA1204602F0D0FD00287DD1AA
:100DF0000A220021E01D02F091FD05466548C0F879
:100E000088502946283001F046FA22A8FFF7D8FB7F
:100E100022AF7549386808607868486000BF72483A
:100E20000068229070484068014623902298FFF79E
:100E3000CEFB3228F3D329465648303001F02BFA46
:100E400022A8FFF7BDFB22AF6749386808607868C1
:100E5000486000BF644800682290634840680146CB
:100E600023902298FFF7B3FB3228F3D3012149489E
:100E7000383001F010FA22A8FFF7A2FB22AF5A493E
:100E8000386808607868486000BF5748006822905A
:100E900055484068014623902298FFF798FB322876
:100EA000F3D3327951A124A802F0B4FC24A802F0B3
:100EB00099FD0746394624A800F032FD0121354846
:100EC000403001F0E8F924A802F08CFD07463946CD
:100ED00024A802F0FAFD22A8FFF772FB22AF4249D4
:100EE000386808607868486000BF00E08AE03E48E3
:100EF000006822903C484068014623902298FFF702
:100F000066FB3228F1D332793BA124A802F082FC9F
:100F100024A802F067FD0746394624A800F000FD2A
:100F200071E30000636F6E6E6563742564706F72A9
:100F3000746661696C0D00002C010020601B0020AC
:100F400024000020300000202C0000202001002080
:100F5000380000206465763D25640D006261640DF3
:100F60000A0000006261640D00000000676F6F649A
:100F70000D00000077696E00D4190020D4160020FF
:100F800076657273696F6E001400002064656C6191
:100F9000793D00009400002064656C74696D653DC6
:100FA00000000000725F696E6974000064656C6126
:100FB000793D25642C73706565643D25642C6465FA
:100FC0006C74696D653D25642C616474696D653D63
:100FD00025640D0A000000007365745F69640000F9
:100FE000616474696D653D000C0000206174696D79
:100FF000653A25640D0000006474696D653A2564E6
:101000000D0000000822FAA1204602F0BFFC0028D3
:101010006BD1002524A802F0E5FC0746394624A838
:1010200002F053FD0A22002104F1080002F076FCD0
:10103000054605B901252946F04801F01BF922A80B
:10104000FFF7BEFA22AFEE4938680860786848605A
:1010500000BFEB4800682290E948406801462390B1
:101060002298FFF7B4FA3228F3D33279AFF2840131
:1010700024A802F0CFFB24A802F0B4FC07463946AE
:1010800024A800F04DFC2946DC48083001F0F2F8B5
:1010900024A802F0A7FC0746394624A802F015FD53
:1010A00022A8FFF78DFA22AFD54938680860786822
:1010B000486000BFD24800682290D148406801468D
:1010C00023902298FFF783FA3228F3D33279AFF2D4
:1010D000D80124A802F09EFB24A802F083FC074656
:1010E000394624A800F01CFC8DE20622C5A120464A
:1010F00002F04CFCB8B90A220021A01D02F00EFC3F
:101100000546C248C0F810520020BC49383981F861
:1011100020002946B948183801F0BDF80A21BCA0C2
:1011200000F0FEFB6FE20522BCA1204602F02EFC7F
:1011300000287DD1814682460027012510E0B9486C
:1011400050F82500012803D109F101097F1C06E0B0
:10115000B44850F8250010B97F1C0AF1010A6D1C33
:10116000B1488068A842EADA092F09DD502115A8A4
:1011700002F0ABFC3A46ADA115A802F04BFB08E02B
:10118000502115A802F0A1FC3A46AAA115A802F028
:1011900041FB15A802F026FC83465A4615A901A872
:1011A00002F03FFC15A802F01DFC8346594615A825
:1011B00000F0B6FBB9F1090F09DD502115A802F0C6
:1011C00084FC4A469DA115A802F024FB08E05021AA
:1011D00015A802F07AFC4A469AA115A802F01AFB5B
:1011E00015A802F0FFFB83465A4615A901A802F094
:1011F00018FC15A802F0F6FB8346594615A800F026
:101200008FFB012531E0874850F8250001282BD1BC
:10121000502115A802F059FC092D0FDD2A468BA19B
:1012200015A802F0F7FA15A802F0DCFB834600E0EF
:1012300095E0594615A800F073FB0CE02A4684A1FE
:1012400015A802F0E7FA15A802F0CCFB8346594630
:1012500015A800F065FB15A802F0C4FB83465A46AA
:1012600015A901A802F0DDFB6D1C6F488068A8423B
:10127000C9DA502115A802F028FCBAF1090F16DDD1
:10128000524674A115A802F0C5FA15A802F0AAFBEF
:1012900083465A4615A901A802F0C3FB15A802F01F
:1012A000A1FB8346594615A800F03AFB15E05246CB
:1012B0006AA115A802F0AEFA15A802F093FB8346C6
:1012C0005A4615A901A802F0ACFB15A802F08AFB4A
:1012D0008346594615A800F023FB01252EE051480E
:1012E00050F8250048BB502115A802F0EEFB092D4F
:1012F0000DDD2A4655A115A802F08CFA15A802F0BA
:1013000071FB8346594615A800F00AFB0CE02A46FB
:101310004FA115A802F07EFA15A802F063FB8346E0
:10132000594615A800F0FCFA15A802F05BFB8346AD
:101330005A4615A901A802F074FB6D1C3A48806852
:10134000A842CCDA47A115A802F064FA15A802F069
:1013500049FB8346594615A800F0E2FA53E10922F9
:1013600042A1204602F012FBA0B90A2228A904F1EA
:10137000080002F0D3FA05460A2200212898401CF2
:1013800002F0CCFA0746AAB239461C48183800F0D9
:1013900095FF38E1052238A1204602F0F7FA28B976
:1013A00000211648183000F065FF2CE1072234A117
:1013B000204602F0EBFAC8B9012514E0142124A854
:1013C00002F083FB174850F825302A462EA124A8A6
:1013D00002F020FA24A802F005FB0746394624A8AB
:1013E00000F09EFA6D1C202DE8DB0CE152E00000BD
:1013F000725F616474696D6500000000CC000020BC
:101400000C00002073706565643D0000D419002055
:101410007370656564207365740D000063686563AF
:101420006B000000601B002020010020414125646A
:101430000000000041413025640000005A5A256434
:10144000000000005A5A30256400000025640000A6
:101450003025640059592564000000005959302591
:1014600064000000454E440D0000000069645F7395
:10147000706565643D000000636C65616E0000008E
:10148000646576696365730064657625643A2564EE
:101490000D00000007225EA1204602F077FAE8BBAB
:1014A00020A8FFF78DF8DDE92001CDE9270100BF75
:1014B000DDE92701FFF78BF80A28F9D300F0F4F8EB
:1014C0000121554800F0D6FE20A8FFF779F8DDE9A4
:1014D0002001CDE9270100BFDDE92701FFF777F8FB
:1014E0003228F9D322A802F07DFA0546294622A81F
:1014F00002F0EBFA3079F17840EA012247A122A804
:1015000002F088F922A802F06DFA0546294622A8C1
:1015100000F006FA304602F065FA00E005E0054604
:101520002946304600F0FCF96DE004223EA1204639
:1015300002F02CFA28B900213748503800F09AFE02
:1015400061E004223AA1204602F020FAE0B93248D4
:101550005838D0F88010042000F0CEFE3648D0F87D
:101560001012082000F0C8FE2B485838D0F884101C
:101570000C2000F0C1FE28485838D0F88810102000
:1015800000F0BAFE3FE040E009222CA1204602F024
:10159000FDF960B90A22002104F1090002F0BEF948
:1015A000054629461C48103000F075FE2BE0062247
:1015B00025A1204602F0EAF978B90A220021A01DEF
:1015C00002F0ACF9054629461348203000F052FEDF
:1015D0001149583981F8705015E007221CA12046A6
:1015E00002F0D4F958B90A220021E01D02F096F960
:1015F000054629460848183000F04DFE03E00B214F
:1016000015A000F08DF900F030F929B0BDE8F08F99
:10161000725F737065656400EC000020737065652F
:10162000643A25640D00000073746F7000000000C0
:101630007361766500000000D41900206261756452
:10164000726174653D000000656E3438353D000000
:101650007365743438353D00756E6B6E6F7720633B
:101660006D640D0008B50121092001F071FD012113
:10167000704801F082FB4FF40040ADF800001020EC
:101680008DF8030001208DF8020069466A4801F0D8
:10169000A3FA4FF40041684801F04DFB08BD6748CC
:1016A000704767480068704710B54FF48061634821
:1016B00002F00BFA0020624908606249086010BD20
:1016C00010B586B004460121480401F04EFD012109
:1016D000052001F03DFD5C4800F0ACFF0420ADF8B2
:1016E000140001208DF8160018208DF8170005A9A8
:1016F000564801F071FA0820ADF8140004208DF866
:10170000170005A9514801F067FA01940020ADF8CF
:101710000800ADF80A00ADF80C00ADF810000C2080
:10172000ADF80E0001A9484800F0C7FF26208DF84B
:10173000000003208DF8010002208DF80200012036
:101740008DF80300684601F07EF9012240F2255130
:101750003D4801F04AF801213B4801F03AF806B053
:1017600010BD002105E0002200E0521C8242FCDB9B
:10177000491C42F2EA429142F5DB70477CB50646CD
:101780000C460025002C00DC7CBD4FF400412A48AB
:1017900001F0CFFA6846FEF713FF2D48DDE900128D
:1017A00006C000BF2A4803C8FEF711FF0028F9D081
:1017B00000250BE0715D244801F078F800BF80211E
:1017C000214801F0E1F80028F9D06D1CA542F1DBB9
:1017D0006846FEF7F5FE1E48DDE9001206C000BFB0
:1017E0001B4803C8FEF7F3FE0728F9D34FF4004166
:1017F000114801F0A0FA00BFC6E710B540F225512C
:10180000114801F0D7F8A0B10F4801F053F8C4B265
:101810000B4801680068401C094A1060074844549E
:1018200010460068B0F5806F03D340F2FF301146D8
:10183000086010BD00023000000C0140440100208F
:101840004000002048000020004400400008014003
:101850004C0000205348704753480068012802D1CB
:101860005248006870470020FCE710B5C8214D4879
:1018700002F009F900204D4908604B49086010BD8D
:1018800010B586B00446012144F2050001F060FC69
:10189000474800F0CFFE4FF40070ADF8140001206F
:1018A0008DF8160018208DF8170005A9414801F0A1
:1018B00093F94FF48060ADF8140004208DF8170000
:1018C00005A93C4801F088F901940020ADF8080012
:1018D000ADF80A00ADF80C00ADF810000C20ADF822
:1018E0000E0001A9324800F0E8FE25208DF8000026
:1018F00003208DF8010004208DF8020001208DF8EE
:101900000300684601F09FF8012240F22551284863
:1019100000F06BFF0121264800F05BFF06B010BD10
:1019200070B506460C460025002C00DC70BD002575
:101930000BE0715D1E4800F0B9FF00BF80211C481C
:1019400001F022F80028F9D06D1CA542F1DB00BFA0
:10195000ECE710B540F22551154801F02BF800B323
:10196000134800F0A7FFC4B20F480068C8B90D2C97
:1019700001D00A2C06D10D48006890B101200A4917
:1019800008600EE0094801680068401C074A1060C2
:101990000448445410460068C82802D3C7201146A2
:1019A000086010BD441500205C0000205400002099
:1019B00000380140000801404A4870474A48006822
:1019C000704710B5C821474802F05DF8002046492D
:1019D00008604649086010BD10B586B00446012174
:1019E000880401F0C2FB0121092001F0B1FB40484D
:1019F00000F020FE4FF48060ADF8140001208DF857
:101A0000160018208DF8170005A93A4801F0E4F8EF
:101A10004FF40060ADF8140004208DF8170005A9FC
:101A2000344801F0D9F801940020ADF80800ADF871
:101A30000A00ADF80C00ADF810000C20ADF80E0057
:101A400001A92B4800F039FE27208DF80000032063
:101A50008DF8010001208DF802008DF80300684622
:101A600000F0F1FF012240F22551214800F0BDFEB7
:101A700001211F4800F0ADFE06B010BD70B506464E
:101A80000C460025002C00DC70BD00250BE0715DCC
:101A9000174800F00BFF00BF8021154800F074FFCD
:101AA0000028F9D06D1CA542F1DB00BFECE710B5B2
:101AB00040F225510E4800F07DFF90B10C4800F037
:101AC000F9FEC4B2084801680068401C064A10606C
:101AD0000448445410460068C82802D3C720114661
:101AE000086010BD0C16002060000020640000207B
:101AF00000480040000C0140F749F84BD3E90623A9
:101B0000C1E90623F54BD3E90223C1E90223F34BD4
:101B1000D3E90423C1E90423002009E0EE49803918
:101B200041F82000012201F5867141F82020401C77
:101B30002028F3DB70472DE9F0438DB004460D46B5
:101B400016461F46DDF85080FFF7AEFD2946404699
:101B500000F090FB01A8FEF733FD0DF10409E04908
:101B600001EB441101980860DD4901EB4411029832
:101B7000486000BFDA4800EB441000680190D84884
:101B800000EB44104068014602900198FEF71FFDEB
:101B90001428EFD3FFF783FD81460822414601F068
:101BA000F5FE08BB0020CE4901EB4411C861CD48C9
:101BB00050F82500A0B90221CA4840F82510282174
:101BC00003A801F082FF2A46C7A103A801F022FE64
:101BD00003A801F007FF8146494603A8FFF7A0FECE
:101BE00038460DB0BDE8F083BD4800EB4410C06935
:101BF000401CBB4901EB4411C861B94800EB4410DB
:101C0000C069032819DBB74850F82500022814D111
:101C1000282103A801F059FF2A46B7A103A801F023
:101C2000F9FD03A801F0DEFE8146494603A8FFF74F
:101C300077FE0021AB4840F825103046D1E77CB54F
:101C40000446A74800EB4410C068022832D1A448DB
:101C500000EB44104069012810D19F488038D0F82B
:101C6000100101280AD100219B488038C0F81011CA
:101C700003209B4901EB4411C860C9E2984800EB7E
:101C8000441040690128F8DD93488038D0F81401E9
:101C90000128F2D1002190488038C0F8101132207C
:101CA0008F4901EB4411C86002208D4901EB4411BA
:101CB0000861ADE28A4800EB4410C068032823D1D4
:101CC0008548103000909038808801B204230322A8
:101CD0002046FFF730FF824901EB4411C86080487D
:101CE00000EB4410C0680428C7D16846FEF768FCC2
:101CF0006D467B4901EB441100980860784901EB7F
:101D000044110198486083E2754800EB4410C068B4
:101D1000042818D1724800EB441000680090704805
:101D200000EB44104068014601900098FEF74FFC1C
:101D30006A49D1F8801088429FD90520684901EB93
:101D40004411C86064E2664800EB4410C06805288E
:101D500028D16148083000908838808801B24FF45B
:101D60007A7305222046FFF7E6FE5D4901EB441138
:101D7000C8605B4800EB4410C068B0F57A7F98D12A
:101D8000012155488038426800F5867040F82210DD
:101D9000012051498039C1F80C0204215BA0FFF7F2
:101DA000BFFD35E24E4800EB4410C068322823D115
:101DB0004948183000909838808801B23323322285
:101DC0002046FFF7B8FE464901EB4411C86044487D
:101DD00000EB4410C068332895D16846FEF7F0FB4D
:101DE0006D463F4901EB4411009808603C4901EB06
:101DF0004411019848600BE2394800EB4410C06878
:101E0000332818D1364800EB44100068009034485D
:101E100000EB44104068014601900098FEF7D7FBA4
:101E20002E49D1F8801088428CD934202C4901EBFE
:101E30004411C860ECE12A4800EB4410C068342823
:101E400028D12548083000908838808801B2352391
:101E500034222046FFF76FFE214901EB4411C86090
:101E60001F4800EB4410C06835289AD101211A4858
:101E70008038C0F81011012017498039C1F80C02D0
:101E8000002115488038C0F8141104211FA0FFF765
:101E900047FDBDE1124800EB4410C068352849D128
:101EA0000F4800EB441040690D4901EB44110969EA
:101EB00088422FDD0A4800EB44100069401C0949A4
:101EC000803951F82000012824D13620044901EB43
:101ED0004411C8609CE10000541A002094000020C6
:101EE000D4160020601B0020636F6E6E656374253E
:101EF00064737563630D0000636F6E6E65637425B4
:101F000064706F72746661696C0D000077696E0DA4
:101F100000000000C44800EB44104069C24901EBD6
:101F200044110969884285D16720BF4901EB4411FA
:101F3000C8606DE1BC4800EB4410C068362848D149
:101F4000B94901EB4411086900EBD0714910A0EBCD
:101F50004101A1B9B5480090B34800EB44100069B5
:101F6000B24A983A32F8200001B23723362220468E
:101F7000FFF7E1FDAC4901EB4411C86014E0AB4848
:101F800008380090A84800EB44100069A74A983A26
:101F900032F8200001B2372336222046FFF7CBFD6E
:101FA000A14901EB4411C8609F4800EB4410C06890
:101FB00037288FD16846FEF703FB6D469A4901EB3F
:101FC000441100980860984901EB44110198486059
:101FD0001EE1954800EB4410C068372818D192489C
:101FE00000EB4410006800908F4800EB44104068FC
:101FF000014601900098FEF7EAFA8D49D1F8801069
:10200000884296D93820884901EB4411C860FFE026
:10201000854800EB4410C068382846D18348103802
:102020000090814800EB44100069804A983A32F8E9
:10203000200001B2352338222046FFF77CFD7A4983
:1020400001EB4411C860784800EB4410C0683528A3
:10205000BED10121744800EB44100269734874300A
:1020600040F82210704800EB44100069401C6E4993
:1020700001EB441108616C4800EB441001696D48A4
:102080008068401C814206DB4FF47A70664901EBA0
:102090004411C860BCE00021634800EB44100269B1
:1020A0006248743040F82210B2E05F4800EB441000
:1020B000C068652819D15C4800EB441000680090A6
:1020C000594800EB44104068014601900098FEF723
:1020D0007EFA5749D1F88010884205D940F2E7309E
:1020E000514901EB4411C86092E04F4800EB4410A5
:1020F000C068672848D14C4901EB4411086900EBDE
:10210000D0714910A0EB4101A9B9484808380090A6
:10211000454800EB44100069444A983A32F82000E0
:1021200001B2652367222046FFF705FD3E4901EB1A
:102130004411C86013E03D4800903B4800EB441058
:1021400000693A4A983A32F8200001B265236722C2
:102150002046FFF7F0FC344901EB4411C8603248D7
:1021600000EB4410C068652852D16846FEF728FA93
:102170006D462D4901EB4411009808602A4901EB96
:1021800044110198486043E0274800EB4410C068C0
:1021900040F2E731884226D1244810380090224886
:1021A00000EB44100069214A983A32F8200001B24D
:1021B0004FF47A735A1E2046FFF7BDFC1A4901EB13
:1021C0004411C860184800EB4410C068B0F57A7F2D
:1021D0001ED10121144800EB4410026913487430E9
:1021E00040F8221014E0104800EB4410C068B0F52D
:1021F0007A7F0DD101200C4901EB44118860801ECB
:10220000094901EB4411C860074901EB44114861D9
:102210007CBD10B5002403E02046FFF710FD641CD0
:10222000182CF9DB10BD0000D41600206C1A002019
:102230009400002020010020F0B502460E464FF623
:10224000FF7015467DB100240BE02B7880EA030176
:10225000CFB2DFF8A0C03CF8177087EA20206D1CD1
:10226000641CB442F1D34FF6FF7707EA0021001255
:102270000843F0BD70B504460D4625700621204682
:10228000FFF7DAFF0646300AA071E6710821204602
:10229000FFF774FA70BD70B504460D46280A207128
:1022A000657106212046FFF7C7FF0646300AA07178
:1022B000E67108212046FFF761FA70BDF0B585B0E0
:1022C00004460D4616461421684601F0FEFB2670B2
:1022D000280A2071657106212046FFF7ADFF0746E9
:1022E0003812A071E77108212046FFF747FA05B0C0
:1022F000F0BD0000043E000870B588B005460E46EB
:1023000000240CE0601C3F4951F820004DF82400E7
:10231000601CB5EB800F01D14DF82460641C082CC3
:10232000F0DB00F09EFF342001F030FA0120364946
:102330000870344800F0D4FF33490870084600782C
:10234000042810D10120087000240AE05DF8241050
:10235000621C2C4B03EB820001F092F82A490870B2
:10236000641C082CF2DB01202749087000F086FF6E
:1023700008B070BD2349C868411C19B12349C1F890
:10238000840003E0C821214AC2F884101F49D1F813
:1023900080101E4AD2F88420891AB1F5967F03DA9C
:1023A00000211A4AC2F88410704700B515484368E6
:1023B000581C18B11548C0F8803004E04FF42F7055
:1023C0001249C1F88000FFF7D5FF00BD0D498868AC
:1023D000411C19B10E49C1F8100204E040F2145139
:1023E0000B4AC2F81012704706490869411C19B11E
:1023F0000649C1F8880003E00521044AC2F88810A4
:102400007047000000F000086800002094000020E1
:10241000D41900200CB50020019000906C48006891
:1024200040F480306A49086000BF6948006800F4E1
:10243000003000900198401C0190009818B9019854
:10244000B0F5A06FF1D16248006800F4003010B11F
:102450000120009001E0002000900098012843D165
:102460005C48006840F010005A490860084600685F
:1024700020F0030008600846006840F00200086091
:1024800053484068524948600846406848600846DA
:10249000406840F4806048600846406820F47C1042
:1024A00048600846406840F4E81048600846006804
:1024B00040F08070086000BF4548006800F0007080
:1024C0000028F9D04248406820F0030040494860A5
:1024D0000846406840F00200486000BF3C48406841
:1024E00000F00C000828F9D10CBD10B5FFF792FFE1
:1024F00010BD10B53648006840F00100344908604E
:102500000846406834490840314948600846006838
:10251000324908402E4908600846006820F48020AF
:1025200008600846406820F4FE0048604FF41F0031
:102530008860FFF7DAFF4FF000602949086010BD9E
:1025400010B5002100200022214B5B6803F00C0134
:1025500021B1042906D0082928D107E0214B224CBB
:10256000236027E01F4B204C236023E0184B5B685F
:1025700003F47010164B5B6803F48032022303EB04
:10258000904022B9194B4343174C23600DE0104B88
:102590005B6803F4003323B1144B4343124C2360B4
:1025A00003E0104B4343104C236003E00D4B0E4CF3
:1025B000236000BF00BF064B5B68C3F303130C4CE2
:1025C000E15C094B1B68CB40074C236010BD000049
:1025D00000100240002002400000FFF8FFFFF6FE5E
:1025E00008ED00E000127A006C00002000093D00B8
:1025F000700000200948804709480047FEE7FEE7D1
:10260000FEE7FEE7FEE7FEE7FEE7FEE7FEE7FEE7A2
:1026100004480549054A064B70470000F3240008AA
:1026200031010008481C0020482E0020481E0020D0
:10263000481E002010B50446FB48844209D1012100
:10264000880300F09FFD00214FF4804000F09AFDC8
:1026500032E0F648844209D10121480400F09FFD90
:1026600000214FF4003000F09AFD25E0F04884424C
:1026700009D10121880400F092FD00214FF480204F
:1026800000F08DFD18E0EB48844209D10121C80417
:1026900000F085FD00214FF4002000F080FD0BE0EC
:1026A000E548844208D10121080500F078FD0021A9
:1026B0004FF4801000F073FD10BD2DE9F04786B097
:1026C00005460E460024A24600BFA1460027B08959
:1026D00000B100BF2F462C8A4CF6FF700440F088F2
:1026E00004432C82AC894EF6F3100440B088318943
:1026F0000843718908430443AC81AC8A4FF6FF401C
:102700000440B0890443AC8201A800F0B4FCC64880
:10271000874202D1DDF810A001E0DDF80CA0A88905
:1027200000F4004040B10AEBCA0000EB0A10316827
:102730004900B0FBF1F807E00AEBCA0000EB0A1011
:1027400031688900B0FBF1F86420B8FBF0F00401B7
:102750002009642101FB1089A88900F4004040B1E0
:10276000322000EBC900B0FBF1F000F00700044399
:1027700008E0322000EB09106421B0FBF1F000F01A
:102780000F0004432C8106B0BDE8F0874FF41651CA
:10279000016000218180C18001810C2141810021E3
:1027A0008181704710B502460020108A4FF2FF0366
:1027B00018400B884C8823438C882343CC882343C0
:1027C0001843108210BD0021018041808180C180AA
:1027D000704721B1828942F40052828104E08289EB
:1027E0004DF6FF731A4082817047F0B5034600240E
:1027F00000260025002040F66A17B94200D100BF2C
:102800001846C1F3421401F01F06012707FA06F526
:10281000012C01D10C3004E0022C01D1103000E079
:1028200014301AB107682F43076002E00768AF430E
:102830000760F0BD1AB1838A0B43838202E0838A6A
:102840008B4383827047028A4FF6F0731A400282EC
:10285000028A0A430282704782894FF2FF731A404C
:10286000828182890A438281704721B1828942F044
:102870000202828104E082894FF6FD731A40828150
:102880007047028A4FF6DF731A400282028A0A43B7
:102890000282704721B1028A42F48042028204E03F
:1028A000028A4BF6FF731A4002827047C1F3080296
:1028B0008280704701468888C0F30800704781898C
:1028C00041F0010181817047028BD2B20283028BF9
:1028D00042EA012202837047028B02F47F420283A4
:1028E000028B0A430283704721B1828A42F02002A0
:1028F000828204E0828A4FF6DF731A408282704738
:1029000021B1828A42F01002828204E0828A4FF66C
:10291000EF731A408282704721B1828A42F0080226
:10292000828204E0828A4FF6F7731A4082827047EF
:1029300021B1828942F40042828103E08289C2F39C
:102940000E028281704721B1828A42F40062828243
:1029500004E0828A4FF2FF731A4082827047828AB3
:102960004FF6FB731A408282828A0A438282704742
:1029700021B1828A42F00202828204E0828A4FF60A
:10298000FD731A408282704702460020B1F5007F35
:1029900000D100BF13880B400BB1012000E00020E4
:1029A000704701F40072B2F5007F00D100BFCA4346
:1029B0000280704770B502460024002300250020E5
:1029C00040F66A16B14200D100BFC1F3421501F0D2
:1029D0001F03012606FA03F3012D02D19689334025
:1029E00006E0022D02D1168A334001E0968A334078
:1029F0000C12012606FA04F41688344013B10CB107
:102A0000012000E0002070BD10B50022002340F638
:102A10006A14A14200D100BF0A1201249440A3B25B
:102A2000DC43048010BD0000003801400044004039
:102A300000480040004C0040005000403149014334
:102A4000314A1160704770B5002100230F22C4780D
:102A500004B32D4C246804F4E064C4F5E064210A56
:102A6000C1F10403CA40447804FA03F184781440A5
:102A700021430901254C0678A155047804F01F056F
:102A80000124AC4005786D11AD0005F1E025C5F8D5
:102A9000004109E0047804F01F050124AC401C4DFE
:102AA0000678761145F8264070BD1A4A0A4002435E
:102AB000154B1B1F1A60704739B1134A121D12685B
:102AC0000243114B1B1D1A6006E00F4A121D1268CB
:102AD00082430D4B1B1D1A607047042808D14FF02C
:102AE000E021096941F004014FF0E022116107E0A3
:102AF0004FF0E021096921F004014FF0E02211615B
:102B0000704700000000FA050CED00E000E400E072
:102B100080E100E080FFFF1F10B50446CC488442EE
:102B200008D10121042000F02DFB0021042000F039
:102B300029FB46E0C748844208D10121082000F063
:102B400021FB0021082000F01DFB3AE0C24884422E
:102B500008D10121102000F015FB0021102000F009
:102B600011FB2EE0BD48844208D10121202000F055
:102B700009FB0021202000F005FB22E0B848844238
:102B800008D10121402000F0FDFA0021402000F092
:102B9000F9FA16E0B348844208D10121802000F000
:102BA000F1FA0021802000F0EDFA0AE0AE488442FC
:102BB00007D10121801500F0E5FA0021A01500F0F1
:102BC000E1FA10BD10B50121084600F0DBFA002142
:102BD000012000F0D7FA10BD2DE9F0410246002592
:102BE0000026002000230024002791F803C00CF0E9
:102BF0000F0591F803C00CF0100CBCF1000F03D0CE
:102C000091F802C04CEA050591F800C0BCF1000F34
:102C100031D0146800202BE04FF0010C0CFA00F3C7
:102C2000B1F800C00CEA03069E4220D183004FF0A9
:102C30000F0C0CFA03F7BC4305FA03FC4CEA04043E
:102C400091F803C0BCF1280F06D14FF0010C0CFA2B
:102C500000FCC2F814C00AE091F803C0BCF1480FB0
:102C600005D14FF0010C0CFA00FCC2F810C0401C5A
:102C70000828D1D31460B1F800C0BCF1FF0F34DDD7
:102C8000546800202EE000F1080C4FF0010808FA0B
:102C90000CF3B1F800C00CEA03069E4221D1830078
:102CA0004FF00F0C0CFA03F7BC4305FA03FC4CEA97
:102CB000040491F803C0BCF1280F05D100F1080C01
:102CC00008FA0CF8C2F8148091F803C0BCF1480F60
:102CD00007D100F1080C4FF0010808FA0CF8C2F80F
:102CE0001080401C0828CED35460BDE8F0814FF618
:102CF000FF710180022181700421C170704702467A
:102D0000002093680B400BB1012000E000207047C9
:102D10000146886880B2704702460020D3680B40A5
:102D20000BB1012000E0002070470146C86880B266
:102D3000704701617047416170470AB1016100E06D
:102D400041617047C16070474FF480320A4382612D
:102D50008161826182698269704702460020434B2B
:102D600018684FF68073184040EA021008433F4B42
:102D7000186070473E49C8617047F0B50A460023A5
:102D800000240021002500F00046B6F1004F02D1DA
:102D9000364EF16901E0354E7168C0F3034583B2E8
:102DA00000F44016B6F5401F08D121F070612F4E97
:102DB000766826F070662D4F7E6012E000F4801673
:102DC000B6F5801F06D1032606FA05F4A14341F0AB
:102DD000706106E0460D360103FA06F6B14341F094
:102DE000706122B1460D360103FA06F6314300F058
:102DF0000046B6F1004F02D11C4EF16101E01B4EBE
:102E00007160F0BD30B500228B071C0F0F2303FA51
:102E100004F2164B08338C1053F824309343134CB0
:102E200008348D1044F8253023468C1053F8243094
:102E30008C07240F00FA04F423430C4C08348D1043
:102E400044F8253030BD0A49DC3108607047000085
:102E500000080140000C0140001001400014014036
:102E600000180140001C014000200140000001400A
:102E700000002042DF48006840F00100DD490860A2
:102E800008464068DC490840DA494860084600685E
:102E9000DA490840D74908600846006820F48020D5
:102EA00008600846406820F4FE0048604FF41F00A8
:102EB00088607047CF49096821F48031CD4A11609C
:102EC0001146096821F480211160B0F5803F03D0DC
:102ED000B0F5802F0ED106E0C649096841F4803173
:102EE000C44A116007E0C349096841F4A021C14AFE
:102EF000116000E000BF00BF704710B5014600221E
:102F0000002300204A11012A02D1BA4C236806E0AE
:102F1000022A02D1B74C236A01E0B64C636A01F081
:102F20001F02012494401C400CB1012000E000204D
:102F300010BD38B5002000900024002500BF3120CE
:102F4000FFF7DBFF05460098401C00900098B0F5A5
:102F5000A06F01D0002DF2D03120FFF7CEFF08B1D5
:102F6000012400E00024204638BD01460020A14A8B
:102F7000106820F0F80040EAC10010607047A049D6
:102F800008607047024600209A4B586820F47C1075
:102F900042EA01031843974B586070479849086606
:102FA000704701460020934A506820F00300084310
:102FB000506070478F48406800F00C007047014631
:102FC00000208C4A506820F0F000084350607047A1
:102FD00001460020874A506820F4E06008435060B2
:102FE000704701460020834A506820F4605040EA50
:102FF000C1005060704729B17E4A527A02437D4B2E
:103000005A7204E07B4A527A82437A4B5A72704772
:103010007B49D8310860704701460020754A5068E6
:1030200020F440400843506070470021714A20322C
:103030001170704A82F82010012802D004280AD1A9
:1030400004E001216B4A2032117005E00521694A34
:103050002032117000E000BF00BF7047694908606E
:1030600070476449096A0143624A116270476549C1
:1030700044390860704730B5002100220024002345
:103080005C4D6D6805F00C0121B1042905D00829BB
:1030900023D105E05C4D056022E05B4D05601FE03B
:1030A000544D6D6805F47012524D6D6805F480340E
:1030B000022505EB92421CB9544D554305600BE0C7
:1030C0004C4D6D6805F400351DB1504D55430560FC
:1030D00002E04D4D5543056002E04B4D056000BFD9
:1030E00000BF444D6D6805F0F0010909484D6B5C67
:1030F0000568DD4045603F4D6D6805F4E061090AF3
:10310000434D6B5C4568DD4085603A4D6D6805F464
:103110006051C90A3E4D6B5C4568DD40C560354D68
:103120006D6805F44041890B3A4D6B5CC568B5FB91
:10313000F3F5056130BD29B12E4A526902432D4B8A
:103140005A6104E02B4A526982432A4B5A61704704
:1031500029B1284A92690243264B9A6104E0254A24
:1031600092698243234B9A61704729B1214AD269FF
:103170000243204BDA6104E01E4AD26982431D4BB0
:10318000DA61704729B11B4AD2680243194BDA60F1
:1031900004E0184AD2688243164BDA60704729B1BE
:1031A000144A12690243134B1A6104E0114A12696E
:1031B0008243104B1A6170471249403908607047CA
:1031C0000F49C86470470B49C87170470948406A85
:1031D00040F0807007494862704701460020054A68
:1031E00092680A400AB1012000E0002070470149BE
:1031F00088727047001002400000FFF8FFFFF6FEE3
:10320000000042428004424200127A0000093D0060
:10321000800000209000002001460020FE4A106837
:1032200000F03800084310607047FB49096821F03E
:103230000801F94A1160114609680143116070479D
:10324000F549096821F01001F34A11601146096837
:10325000014311607047F148EF494860F048486009
:103260007047EE48EC494860ED4848607047EA48CE
:10327000006940F08000E84908617047E64800694D
:1032800040F08000E449086170470420E249C968C1
:1032900001F0010109B101200EE0DF49C96801F028
:1032A000040109B1022007E0DB49C96801F01001FF
:1032B00009B1032000E00420704700B50246042352
:1032C000FFF7E3FF034603E0FFF7DFFF0346521E6D
:1032D000012B01D1002AF7D102B90523184600BD00
:1032E00030B5044604254FF43020FFF7E6FF0546CD
:1032F000042D17D1C848006940F00200C649086192
:1033000008464461006940F0400008614FF43020F5
:10331000FFF7D3FF0546C048006941F6FD7108403C
:10332000BD490861284630BD10B504244FF4302053
:10333000FFF7C3FF0446042C16D1B748006940F0DC
:103340000400B54908610846006940F04000086182
:103350004FF43020FFF7B1FF0446AF48006941F653
:10336000FB710840AC490861204610BD00B502461B
:103370000423FFF78AFF034603E0FFF786FF0346B7
:10338000521E012B01D1002AF7D102B9052318469C
:1033900000BD10B504244FF43020FFF7E7FF0446CA
:1033A000042C16D19C48006940F004009A49086139
:1033B0000846006940F0400008614FF43020FFF7F4
:1033C000D5FF04469448006941F6FB7108409249D4
:1033D0000861204610BD00208F49C96901F0020133
:1033E00009B1012000E00020704730B5A525042474
:1033F000FFF7F1FF00B100254FF43020FFF75DFF2C
:103400000446042C3AD18548834988608448886002
:103410000846006940F0200008610846006940F055
:10342000400008614FF43020FFF747FF0446042CAA
:103430001BD17948006941F6DF710840764908617F
:103440000846006940F01000086176480580E002F7
:10345000FFF733FF0446052C10D06F48006941F692
:10346000EF7108406C49086108E0052C06D06A48F5
:10347000006941F6EF71084067490861204630BD98
:1034800078B506460C46042500200090E802FFF7B8
:1034900014FF0546042D24D15F48006940F0010067
:1034A0005D4908613480E802FFF707FF0546042DF7
:1034B00010D1B01C0090200C00990880E802FFF7A2
:1034C000FCFE05465448006941F6FE710840524929
:1034D000086106E05048006941F6FE7108404E4917
:1034E0000861284678BD70B504460D460426F002F2
:1034F000FFF7E3FE0646042E11D14748006940F06D
:103500000100454908612580F002FFF7D6FE064616
:103510004148006941F6FE7108403F490861304664
:1035200070BD70B505460E460424E002FFF7C5FEE7
:103530000446042C17D139483749886038488860D8
:103540000846006940F0100008612E80E002FFF795
:10355000B4FE0446052C06D02F48006941F6EF71F1
:1035600008402D490861204670BD2DE9F04304460E
:103570004FF6FF763746B046B1460425E443E6B23F
:10358000C4F30727C4F307484FEA1469E802FFF7BA
:1035900094FE0546042D49D120481F4988602048E3
:1035A00088600846006940F010000861FF2E06D0D0
:1035B0001C4808300680E802FFF77FFE0546042D10
:1035C00008D1FF2F06D017480A300780E802FFF71E
:1035D00074FE0546042D0AD1B8F1FF0F07D011483B
:1035E0000C30A0F80080E802FFF767FE0546042DC6
:1035F0000AD1B9F1FF0F07D00A480E30A0F80090A9
:10360000E802FFF75AFE0546052D0FD00248006973
:1036100041F6EF71084007E00020024023016745B2
:10362000AB89EFCD00F8FF1F664908612846BDE869
:10363000F08330B5054604244FF43020FFF73DFEFB
:103640000446042C41D160485E4988605F48886028
:103650000846006940F0200008610846006940F013
:10366000400008614FF43020FFF727FE0446042C89
:1036700022D15448006941F6DF7108405149086180
:103680000846006940F0100008611DB10020504953
:10369000088002E0A5204E4908804FF43020FFF753
:1036A0000CFE0446052C10D04648006941F6EF7127
:1036B00008404449086108E0052C06D041480069EB
:1036C00041F6DF7108403F490861204630BDF0B542
:1036D00005460E46174604243B483A4988603B4855
:1036E0008860E002FFF7E9FD0446042C19D1354853
:1036F000006940F010003349086147F0F80030439A
:1037000028433349891C0880E002FFF7D6FD0446B0
:10371000052C06D02B48006941F6EF710840294975
:1037200008612046F0BD2748C069800870472548D9
:10373000006A704700202349096801F0200109B19F
:10374000012000E00020704729B11E4A126902439F
:103750001C4B1A6104E01B4A12698243194B1A611F
:10376000704701460020012908D1164AD26902F0AB
:1037700001020AB1012008E0002006E0114AD268E7
:103780000A400AB1012000E0002070470D49C860DE
:10379000704704200B49C96801F0010109B10120FB
:1037A0000EE00849C96801F0040109B1022007E0F0
:1037B0000449C96801F0100109B1032000E00420A8
:1037C000704700000020024023016745AB89EFCD20
:1037D00000F8FF1F0E49086070470D4948607047A8
:1037E0000B49886070474AF6AA200949086070476B
:1037F0004CF6CC4006490860704701460020044A58
:10380000D2680A400AB1012000E0002070470000A1
:10381000003000400FB41CB5074B06AA7B44694634
:103820000090059800F0E7F90020694600F0F6F9ED
:103830001CBC5DF814FB0000FD0300002DE9F04105
:103840000E460446002020622046E168884730B3D7
:10385000252805D0D4E901219047206A401CF2E7D1
:10386000E168204600278847050018D0A5F14100EF
:10387000192802D820354FF40067324629462046E1
:103880002760FCF78FFC40B1012804D0F61D26F01C
:1038900007060836D8E7361DD6E72846DAE7206A55
:1038A000BDE8F0812DE9F041064600241068752935
:1038B000314616A510D0AFF30080002802DA40424E
:1038C00013A507E031688A0701D512A502E0490770
:1038D00004D511A5012401E0AFF3008000210A22E4
:1038E00006F1240709E0B0FBF2FCB0FBF2F302FBA7
:1038F0001C00303078541846491C0028F3D1234668
:103900002A463046BDE8F04100F016B9000000003C
:103910002D0000002B000000200000002DE9F047E2
:1039200091460F4680460446002614F8015B2DB1EF
:1039300000F0F6F80068405DC007F6D12B2D02D0EC
:103940002D2D18D0641E4A463946204600F06BF9EA
:1039500027B13968A14201D1C7F800804FF00204B5
:1039600071050BD54042002803DD00F0E1F804604A
:10397000A007BDE8F08746F48066E4E70028F8DA9F
:1039800000F0D6F804606FF00040F2E740EA01036F
:1039900010B59B070FD1042A0DD310C808C9121FF8
:1039A0009C42F8D020BA19BA884201D9012010BD32
:1039B0004FF0FF3010BD1AB1D30703D0521C07E0FF
:1039C000002010BD10F8013B11F8014B1B1B07D163
:1039D00010F8013B11F8014B1B1B01D1921EF1D1D4
:1039E000184610BD10B5431C02E010F8011B71B160
:1039F0008107FAD14FF0013202C88C1A8C4314EAC5
:103A0000C211F9D0C01A0A0603D0C01E10BDC01AD8
:103A100010BD0A0401D0801E10BD0902FCD0401E5A
:103A200010BD10B5203AC0F00B80B1E81850203A14
:103A3000A0E81850B1E81850A0E81850BFF4F5AF4E
:103A40005FEA027C24BFB1E81850A0E8185044BFD8
:103A500018C918C0BDE810405FEA827C24BF51F845
:103A6000043B40F8043B08BF7047D20728BF31F839
:103A7000023B48BF11F8012B28BF20F8023B48BF8A
:103A800000F8012B70474FF000020429C0F01280AB
:103A900010F0030C00F01B80CCF1040CBCF1020F01
:103AA00018BF00F8012BA8BF20F8022BA1EB0C01D6
:103AB00000F00DB85FEAC17C24BF00F8012B00F8CC
:103AC000012B48BF00F8012B70474FF0000200B5F2
:103AD000134694469646203922BFA0E80C50A0E831
:103AE0000C50B1F12001BFF4F7AF090728BFA0E8DF
:103AF0000C5048BF0CC05DF804EB890028BF40F8AB
:103B0000042B08BF704748BF20F8022B11F0804FEC
:103B100018BF00F8012B70477047704770470000CE
:103B200010B500F0D3F8001D10BD00BFAD020000BD
:103B300000487047E81B00202DE9F0470D469946E4
:103B40009246044600F124080168880604D5E0691D
:103B500021F01001216000E00120A84201DD471B97
:103B600000E00027A1697A1902EB0900081AA06198
:103B70002078C00602D42046AFF30080002608E07B
:103B8000D4E901211AF806009047206A401C761CEF
:103B900020624E45F4DB2078C0060AD52046AFF3FC
:103BA000008006E0D4E9012130209047206A401CC3
:103BB0002062381EA7F10107F4DC07E0D4E90121F7
:103BC00018F805009047206A401C2062281EA5F1C5
:103BD0000105F3DC2046AFF300802078000602D513
:103BE0000220BDE8F0870120FBE7000001694A1CC4
:103BF00002610878704700B58FB0CDE9013100212E
:103C0000059105497944CDE9031011466846FFF74F
:103C100015FE0FB000BD0000E5FFFFFF0A6802F8C7
:103C2000010B0A6070472DE9F05F824615468B460E
:103C300000270AF10104B9460078302801D09DB16F
:103C400013E014F8010B0127782803D0582801D07D
:103C500045B10AE00DB1102D07D1002714F8010B72
:103C6000102502E0082500E00A250026B0460EE0F7
:103C700005FB080005FB06F101271FFA80F801EBA0
:103C80001046B6F5803F00D3B94614F8010B29461B
:103C900000F020F80028EBDABBF1000F05D00FB1DF
:103CA000641E00E05446CBF80040B9F1000F06D086
:103CB000FFF73EFF02210160C81EBDE8F09F48EA01
:103CC0000640FAE700487047E81B002000487047AC
:103CD000081C00203A2800D2303820F02002412A67
:103CE00001D3A2F13700884201D34FF0FF30704773
:103CF0007546FFF7E7FFAE4605006946534620F0DC
:103D00000700854618B020B5FEF782FCBDE82040CC
:103D10004FF000064FF000074FF000084FF0000B87
:103D200021F00701AC46ACE8C009ACE8C009ACE83A
:103D3000C009ACE8C0098D4670470446AFF3008067
:103D40002046FCF74AFA00004FF0013C50F8042BE3
:103D500051F8043B9A4221D1A2EB0C03934313EA9E
:103D6000CC1317D150F8042B51F8043B9A4215D1CB
:103D7000A2EB0C03934313EACC130BD150F8042BA2
:103D800051F8043B9A4209D1A2EB0C03934313EA86
:103D9000CC13DBD04FF00000704700BFD01A01BA3F
:103DA000B1FA81F101F0180122FA01F0CB40C1F122
:103DB0002001DBB2C0B2C01A2CFA01F3D11A914330
:103DC00011EAC311E6D1704701491820ABBEFEE7E6
:103DD000260002007047000010B500290AD00878BC
:103DE000002807D005487844FFF7AEFF002801D02F
:103DF000002010BD0248784410BD00003E020000C3
:103E0000360200000000C1C081C1400101C3C003EF
:103E1000800241C201C6C006800741C70005C1C576
:103E200081C4400401CCC00C800D41CD000FC1CF36
:103E300081CE400E000AC1CA81CB400B01C9C00926
:103E4000800841C801D8C018801941D9001BC1DBC6
:103E500081DA401A001EC1DE81DF401F01DDC01D76
:103E6000801C41DC0014C1D481D5401501D7C01796
:103E7000801641D601D2C012801341D30011C1D1A6
:103E800081D0401001F0C030803141F10033C1F3E6
:103E900081F240320036C1F681F7403701F5C03576
:103EA000803441F4003CC1FC81FD403D01FFC03F36
:103EB000803E41FE01FAC03A803B41FB0039C1F926
:103EC00081F840380028C1E881E9402901EBC02B86
:103ED000802A41EA01EEC02E802F41EF002DC1ED76
:103EE00081EC402C01E4C024802541E50027C1E796
:103EF00081E640260022C1E281E3402301E1C021A6
:103F0000802041E001A0C060806141A10063C1A3A5
:103F100081A240620066C1A681A7406701A5C06575
:103F2000806441A4006CC1AC81AD406D01AFC06F35
:103F3000806E41AE01AAC06A806B41AB0069C1A925
:103F400081A840680078C1B881B9407901BBC07BC5
:103F5000807A41BA01BEC07E807F41BF007DC1BD75
:103F600081BC407C01B4C074807541B50077C1B795
:103F700081B640760072C1B281B3407301B1C071A5
:103F8000807041B00050C190819140510193C05365
:103F9000805241920196C056805741970055C19575
:103FA00081944054019CC05C805D419D005FC19F35
:103FB000819E405E005AC19A819B405B0199C05925
:103FC000805841980188C04880494189004BC18B85
:103FD000818A404A004EC18E818F404F018DC04D75
:103FE000804C418C0044C184818540450187C04795
:103FF000804641860182C042804341830041C181A5
:1040000081804040344100080000002094000000FE
:104010006C010008C841000894000020B42D000085
:10402000880100081001000043000000F8FFFFFFB6
:1040300000404040404040404040414141414140BB
:104040004040404040404040404040404040404070
:1040500040050202020202020202020202020202FF
:104060000220202020202020202020020202020204
:10407000020290909090909010101010101010105C
:104080001010101010101010101010100202020268
:1040900002028888888888880808080808080808AC
:1040A00008080808080808080808080802020202A8
:1040B00040000000000000000000000000000000C0
:1040C00000000000000000000000000000000000F0
:1040D00000000000000000000000000000000000E0
:1040E00000000000000000000000000000000000D0
:1040F00000000000000000000000000000000000C0
:1041000000000000000000000000000000000000AF
:10411000000000000000000000000000000000009F
:10412000000000000000000000000000000000008F
:10413000000000000000000000000000000000007F
:10414000000000000000000076657273696F6E2049
:1041500076312E300D00000001000000000000004C
:10416000010000000000000000000000000000004E
:10417000000000000000000000000000000000003F
:10418000000000000000000000000000000000002F
:10419000000000000000000000000000010000001E
:1041A00000A24A0400000000000000000102030415
:1041B00006070809000000000102030401020304CD
:0841C0000607080902040608C5
:0400000508000131BD
:00000001FF
